{
  "_format": "hh-sol-artifact-1",
  "contractName": "SharpDaoV2",
  "sourceName": "contracts/SharpDaoV2.sol",
  "abi": [
    {
      "inputs": [
        {
          "internalType": "address[]",
          "name": "_owners",
          "type": "address[]"
        },
        {
          "internalType": "string",
          "name": "_baseURI",
          "type": "string"
        }
      ],
      "stateMutability": "nonpayable",
      "type": "constructor"
    },
    {
      "anonymous": false,
      "inputs": [
        {
          "indexed": true,
          "internalType": "address",
          "name": "account",
          "type": "address"
        },
        {
          "indexed": true,
          "internalType": "address",
          "name": "operator",
          "type": "address"
        },
        {
          "indexed": false,
          "internalType": "bool",
          "name": "approved",
          "type": "bool"
        }
      ],
      "name": "ApprovalForAll",
      "type": "event"
    },
    {
      "anonymous": false,
      "inputs": [
        {
          "indexed": true,
          "internalType": "address",
          "name": "previousOwner",
          "type": "address"
        },
        {
          "indexed": true,
          "internalType": "address",
          "name": "newOwner",
          "type": "address"
        }
      ],
      "name": "OwnershipTransferred",
      "type": "event"
    },
    {
      "anonymous": false,
      "inputs": [
        {
          "indexed": true,
          "internalType": "address",
          "name": "operator",
          "type": "address"
        },
        {
          "indexed": true,
          "internalType": "address",
          "name": "from",
          "type": "address"
        },
        {
          "indexed": true,
          "internalType": "address",
          "name": "to",
          "type": "address"
        },
        {
          "indexed": false,
          "internalType": "uint256[]",
          "name": "ids",
          "type": "uint256[]"
        },
        {
          "indexed": false,
          "internalType": "uint256[]",
          "name": "values",
          "type": "uint256[]"
        }
      ],
      "name": "TransferBatch",
      "type": "event"
    },
    {
      "anonymous": false,
      "inputs": [
        {
          "indexed": true,
          "internalType": "address",
          "name": "operator",
          "type": "address"
        },
        {
          "indexed": true,
          "internalType": "address",
          "name": "from",
          "type": "address"
        },
        {
          "indexed": true,
          "internalType": "address",
          "name": "to",
          "type": "address"
        },
        {
          "indexed": false,
          "internalType": "uint256",
          "name": "id",
          "type": "uint256"
        },
        {
          "indexed": false,
          "internalType": "uint256",
          "name": "value",
          "type": "uint256"
        }
      ],
      "name": "TransferSingle",
      "type": "event"
    },
    {
      "anonymous": false,
      "inputs": [
        {
          "indexed": false,
          "internalType": "string",
          "name": "value",
          "type": "string"
        },
        {
          "indexed": true,
          "internalType": "uint256",
          "name": "id",
          "type": "uint256"
        }
      ],
      "name": "URI",
      "type": "event"
    },
    {
      "inputs": [],
      "name": "ART",
      "outputs": [
        {
          "internalType": "uint256",
          "name": "",
          "type": "uint256"
        }
      ],
      "stateMutability": "view",
      "type": "function"
    },
    {
      "inputs": [],
      "name": "COINS",
      "outputs": [
        {
          "internalType": "uint256",
          "name": "",
          "type": "uint256"
        }
      ],
      "stateMutability": "view",
      "type": "function"
    },
    {
      "inputs": [
        {
          "internalType": "address",
          "name": "account",
          "type": "address"
        },
        {
          "internalType": "uint256",
          "name": "id",
          "type": "uint256"
        }
      ],
      "name": "balanceOf",
      "outputs": [
        {
          "internalType": "uint256",
          "name": "",
          "type": "uint256"
        }
      ],
      "stateMutability": "view",
      "type": "function"
    },
    {
      "inputs": [
        {
          "internalType": "address[]",
          "name": "accounts",
          "type": "address[]"
        },
        {
          "internalType": "uint256[]",
          "name": "ids",
          "type": "uint256[]"
        }
      ],
      "name": "balanceOfBatch",
      "outputs": [
        {
          "internalType": "uint256[]",
          "name": "",
          "type": "uint256[]"
        }
      ],
      "stateMutability": "view",
      "type": "function"
    },
    {
      "inputs": [
        {
          "internalType": "uint256",
          "name": "",
          "type": "uint256"
        },
        {
          "internalType": "address",
          "name": "",
          "type": "address"
        }
      ],
      "name": "hasVoted",
      "outputs": [
        {
          "internalType": "bool",
          "name": "",
          "type": "bool"
        }
      ],
      "stateMutability": "view",
      "type": "function"
    },
    {
      "inputs": [
        {
          "internalType": "address",
          "name": "account",
          "type": "address"
        },
        {
          "internalType": "address",
          "name": "operator",
          "type": "address"
        }
      ],
      "name": "isApprovedForAll",
      "outputs": [
        {
          "internalType": "bool",
          "name": "",
          "type": "bool"
        }
      ],
      "stateMutability": "view",
      "type": "function"
    },
    {
      "inputs": [
        {
          "internalType": "address",
          "name": "",
          "type": "address"
        }
      ],
      "name": "isOwner",
      "outputs": [
        {
          "internalType": "bool",
          "name": "",
          "type": "bool"
        }
      ],
      "stateMutability": "view",
      "type": "function"
    },
    {
      "inputs": [
        {
          "internalType": "bytes32",
          "name": "newName",
          "type": "bytes32"
        }
      ],
      "name": "newProposal",
      "outputs": [],
      "stateMutability": "nonpayable",
      "type": "function"
    },
    {
      "inputs": [
        {
          "internalType": "uint256",
          "name": "index",
          "type": "uint256"
        }
      ],
      "name": "newVote",
      "outputs": [],
      "stateMutability": "nonpayable",
      "type": "function"
    },
    {
      "inputs": [],
      "name": "owner",
      "outputs": [
        {
          "internalType": "address",
          "name": "",
          "type": "address"
        }
      ],
      "stateMutability": "view",
      "type": "function"
    },
    {
      "inputs": [
        {
          "internalType": "uint256",
          "name": "",
          "type": "uint256"
        }
      ],
      "name": "owners",
      "outputs": [
        {
          "internalType": "address",
          "name": "",
          "type": "address"
        }
      ],
      "stateMutability": "view",
      "type": "function"
    },
    {
      "inputs": [
        {
          "internalType": "uint256",
          "name": "",
          "type": "uint256"
        }
      ],
      "name": "proposals",
      "outputs": [
        {
          "internalType": "bytes32",
          "name": "name",
          "type": "bytes32"
        },
        {
          "internalType": "uint256",
          "name": "voteCount",
          "type": "uint256"
        }
      ],
      "stateMutability": "view",
      "type": "function"
    },
    {
      "inputs": [],
      "name": "renounceOwnership",
      "outputs": [],
      "stateMutability": "nonpayable",
      "type": "function"
    },
    {
      "inputs": [
        {
          "internalType": "address",
          "name": "from",
          "type": "address"
        },
        {
          "internalType": "address",
          "name": "to",
          "type": "address"
        },
        {
          "internalType": "uint256[]",
          "name": "ids",
          "type": "uint256[]"
        },
        {
          "internalType": "uint256[]",
          "name": "amounts",
          "type": "uint256[]"
        },
        {
          "internalType": "bytes",
          "name": "data",
          "type": "bytes"
        }
      ],
      "name": "safeBatchTransferFrom",
      "outputs": [],
      "stateMutability": "nonpayable",
      "type": "function"
    },
    {
      "inputs": [
        {
          "internalType": "address",
          "name": "from",
          "type": "address"
        },
        {
          "internalType": "address",
          "name": "to",
          "type": "address"
        },
        {
          "internalType": "uint256",
          "name": "id",
          "type": "uint256"
        },
        {
          "internalType": "uint256",
          "name": "amount",
          "type": "uint256"
        },
        {
          "internalType": "bytes",
          "name": "data",
          "type": "bytes"
        }
      ],
      "name": "safeTransferFrom",
      "outputs": [],
      "stateMutability": "nonpayable",
      "type": "function"
    },
    {
      "inputs": [
        {
          "internalType": "address",
          "name": "operator",
          "type": "address"
        },
        {
          "internalType": "bool",
          "name": "approved",
          "type": "bool"
        }
      ],
      "name": "setApprovalForAll",
      "outputs": [],
      "stateMutability": "nonpayable",
      "type": "function"
    },
    {
      "inputs": [
        {
          "internalType": "bytes4",
          "name": "interfaceId",
          "type": "bytes4"
        }
      ],
      "name": "supportsInterface",
      "outputs": [
        {
          "internalType": "bool",
          "name": "",
          "type": "bool"
        }
      ],
      "stateMutability": "view",
      "type": "function"
    },
    {
      "inputs": [
        {
          "internalType": "address",
          "name": "newOwner",
          "type": "address"
        }
      ],
      "name": "transferOwnership",
      "outputs": [],
      "stateMutability": "nonpayable",
      "type": "function"
    },
    {
      "inputs": [
        {
          "internalType": "uint256",
          "name": "",
          "type": "uint256"
        }
      ],
      "name": "uri",
      "outputs": [
        {
          "internalType": "string",
          "name": "",
          "type": "string"
        }
      ],
      "stateMutability": "view",
      "type": "function"
    }
  ],
  "bytecode": "0x60806040523480156200001157600080fd5b506040516200453238038062004532833981810160405281019062000037919062000b5b565b806200004981620003e660201b60201c565b506200006a6200005e6200040260201b60201c565b6200040a60201b60201c565b6000825111620000b1576040517f08c379a0000000000000000000000000000000000000000000000000000000008152600401620000a89062000fb0565b60405180910390fd5b6001600560003373ffffffffffffffffffffffffffffffffffffffff1673ffffffffffffffffffffffffffffffffffffffff16815260200190815260200160002060006101000a81548160ff0219169083151502179055506007339080600181540180825580915050600190039060005260206000200160009091909190916101000a81548173ffffffffffffffffffffffffffffffffffffffff021916908373ffffffffffffffffffffffffffffffffffffffff16021790555062000191336000600160405180602001604052806000815250620004d060201b60201c565b620001b53360018060405180602001604052806000815250620004d060201b60201c565b60005b8251811015620003dd576000838281518110620001fe577f4e487b7100000000000000000000000000000000000000000000000000000000600052603260045260246000fd5b60200260200101519050600073ffffffffffffffffffffffffffffffffffffffff168173ffffffffffffffffffffffffffffffffffffffff1614156200027b576040517f08c379a0000000000000000000000000000000000000000000000000000000008152600401620002729062000ff4565b60405180910390fd5b600560008273ffffffffffffffffffffffffffffffffffffffff1673ffffffffffffffffffffffffffffffffffffffff16815260200190815260200160002060009054906101000a900460ff16156200030b576040517f08c379a0000000000000000000000000000000000000000000000000000000008152600401620003029062000f8e565b60405180910390fd5b6001600560008373ffffffffffffffffffffffffffffffffffffffff1673ffffffffffffffffffffffffffffffffffffffff16815260200190815260200160002060006101000a81548160ff0219169083151502179055506007819080600181540180825580915050600190039060005260206000200160009091909190916101000a81548173ffffffffffffffffffffffffffffffffffffffff021916908373ffffffffffffffffffffffffffffffffffffffff160217905550508080620003d49062001244565b915050620001b8565b50505062001435565b8060029080519060200190620003fe92919062000969565b5050565b600033905090565b6000600360009054906101000a900473ffffffffffffffffffffffffffffffffffffffff16905081600360006101000a81548173ffffffffffffffffffffffffffffffffffffffff021916908373ffffffffffffffffffffffffffffffffffffffff1602179055508173ffffffffffffffffffffffffffffffffffffffff168173ffffffffffffffffffffffffffffffffffffffff167f8be0079c531659141344cd1fd0a4f28419497f9722a3daafe3b4186f6b6457e060405160405180910390a35050565b600073ffffffffffffffffffffffffffffffffffffffff168473ffffffffffffffffffffffffffffffffffffffff16141562000543576040517f08c379a00000000000000000000000000000000000000000000000000000000081526004016200053a9062000fd2565b60405180910390fd5b6000620005556200040260201b60201c565b90506200058e8160008762000570886200069560201b60201c565b62000581886200069560201b60201c565b876200075e60201b60201c565b8260008086815260200190815260200160002060008773ffffffffffffffffffffffffffffffffffffffff1673ffffffffffffffffffffffffffffffffffffffff1681526020019081526020016000206000828254620005ef919062001111565b925050819055508473ffffffffffffffffffffffffffffffffffffffff16600073ffffffffffffffffffffffffffffffffffffffff168273ffffffffffffffffffffffffffffffffffffffff167fc3d58168c5ae7397731d063d5bbf3d657854427343f4c083240f7aacaa2d0f6287876040516200066f92919062001016565b60405180910390a46200068e816000878787876200076660201b60201c565b5050505050565b60606000600167ffffffffffffffff811115620006db577f4e487b7100000000000000000000000000000000000000000000000000000000600052604160045260246000fd5b6040519080825280602002602001820160405280156200070a5781602001602082028036833780820191505090505b509050828160008151811062000749577f4e487b7100000000000000000000000000000000000000000000000000000000600052603260045260246000fd5b60200260200101818152505080915050919050565b505050505050565b620007928473ffffffffffffffffffffffffffffffffffffffff166200095660201b620010631760201c565b156200094e578373ffffffffffffffffffffffffffffffffffffffff1663f23a6e6187878686866040518663ffffffff1660e01b8152600401620007db95949392919062000ec2565b602060405180830381600087803b158015620007f657600080fd5b505af19250505080156200082a57506040513d601f19601f8201168201806040525081019062000827919062000bce565b60015b620008c257620008396200133d565b8062000846575062000885565b806040517f08c379a00000000000000000000000000000000000000000000000000000000081526004016200087c919062000f26565b60405180910390fd5b6040517f08c379a0000000000000000000000000000000000000000000000000000000008152600401620008b99062000f4a565b60405180910390fd5b63f23a6e6160e01b7bffffffffffffffffffffffffffffffffffffffffffffffffffffffff1916817bffffffffffffffffffffffffffffffffffffffffffffffffffffffff1916146200094c576040517f08c379a0000000000000000000000000000000000000000000000000000000008152600401620009439062000f6c565b60405180910390fd5b505b505050505050565b600080823b905060008111915050919050565b82805462000977906200120e565b90600052602060002090601f0160209004810192826200099b5760008555620009e7565b82601f10620009b657805160ff1916838001178555620009e7565b82800160010185558215620009e7579182015b82811115620009e6578251825591602001919060010190620009c9565b5b509050620009f69190620009fa565b5090565b5b8082111562000a15576000816000905550600101620009fb565b5090565b600062000a3062000a2a8462001077565b62001043565b9050808382526020820190508285602086028201111562000a5057600080fd5b60005b8581101562000a84578162000a69888262000ad3565b84526020840193506020830192505060018101905062000a53565b5050509392505050565b600062000aa562000a9f84620010a6565b62001043565b90508281526020810184848401111562000abe57600080fd5b62000acb848285620011d8565b509392505050565b60008151905062000ae48162001401565b92915050565b600082601f83011262000afc57600080fd5b815162000b0e84826020860162000a19565b91505092915050565b60008151905062000b28816200141b565b92915050565b600082601f83011262000b4057600080fd5b815162000b5284826020860162000a8e565b91505092915050565b6000806040838503121562000b6f57600080fd5b600083015167ffffffffffffffff81111562000b8a57600080fd5b62000b988582860162000aea565b925050602083015167ffffffffffffffff81111562000bb657600080fd5b62000bc48582860162000b2e565b9150509250929050565b60006020828403121562000be157600080fd5b600062000bf18482850162000b17565b91505092915050565b62000c05816200116e565b82525050565b600062000c1882620010d9565b62000c248185620010ef565b935062000c36818560208601620011d8565b62000c41816200131f565b840191505092915050565b600062000c5982620010e4565b62000c65818562001100565b935062000c77818560208601620011d8565b62000c82816200131f565b840191505092915050565b600062000c9c60348362001100565b91507f455243313135353a207472616e7366657220746f206e6f6e204552433131353560008301527f526563656976657220696d706c656d656e7465720000000000000000000000006020830152604082019050919050565b600062000d0460288362001100565b91507f455243313135353a204552433131353552656365697665722072656a6563746560008301527f6420746f6b656e730000000000000000000000000000000000000000000000006020830152604082019050919050565b600062000d6c60108362001100565b91507f6f776e6572206e6f7420756e69717565000000000000000000000000000000006000830152602082019050919050565b600062000dae60188362001100565b91507f696e707574206f66206f776e65727320726571756972656400000000000000006000830152602082019050919050565b600062000df060218362001100565b91507f455243313135353a206d696e7420746f20746865207a65726f2061646472657360008301527f73000000000000000000000000000000000000000000000000000000000000006020830152604082019050919050565b600062000e5860258362001100565b91507f696e76616c6964206f776e65722e2063616e6e6f74206265207a65726f20616460008301527f64726573730000000000000000000000000000000000000000000000000000006020830152604082019050919050565b62000ebc81620011ce565b82525050565b600060a08201905062000ed9600083018862000bfa565b62000ee8602083018762000bfa565b62000ef7604083018662000eb1565b62000f06606083018562000eb1565b818103608083015262000f1a818462000c0b565b90509695505050505050565b6000602082019050818103600083015262000f42818462000c4c565b905092915050565b6000602082019050818103600083015262000f658162000c8d565b9050919050565b6000602082019050818103600083015262000f878162000cf5565b9050919050565b6000602082019050818103600083015262000fa98162000d5d565b9050919050565b6000602082019050818103600083015262000fcb8162000d9f565b9050919050565b6000602082019050818103600083015262000fed8162000de1565b9050919050565b600060208201905081810360008301526200100f8162000e49565b9050919050565b60006040820190506200102d600083018562000eb1565b6200103c602083018462000eb1565b9392505050565b6000604051905081810181811067ffffffffffffffff821117156200106d576200106c620012f0565b5b8060405250919050565b600067ffffffffffffffff821115620010955762001094620012f0565b5b602082029050602081019050919050565b600067ffffffffffffffff821115620010c457620010c3620012f0565b5b601f19601f8301169050602081019050919050565b600081519050919050565b600081519050919050565b600082825260208201905092915050565b600082825260208201905092915050565b60006200111e82620011ce565b91506200112b83620011ce565b9250827fffffffffffffffffffffffffffffffffffffffffffffffffffffffffffffffff0382111562001163576200116262001292565b5b828201905092915050565b60006200117b82620011ae565b9050919050565b60007fffffffff0000000000000000000000000000000000000000000000000000000082169050919050565b600073ffffffffffffffffffffffffffffffffffffffff82169050919050565b6000819050919050565b60005b83811015620011f8578082015181840152602081019050620011db565b8381111562001208576000848401525b50505050565b600060028204905060018216806200122757607f821691505b602082108114156200123e576200123d620012c1565b5b50919050565b60006200125182620011ce565b91507fffffffffffffffffffffffffffffffffffffffffffffffffffffffffffffffff82141562001287576200128662001292565b5b600182019050919050565b7f4e487b7100000000000000000000000000000000000000000000000000000000600052601160045260246000fd5b7f4e487b7100000000000000000000000000000000000000000000000000000000600052602260045260246000fd5b7f4e487b7100000000000000000000000000000000000000000000000000000000600052604160045260246000fd5b6000601f19601f8301169050919050565b60008160e01c9050919050565b600060443d10156200134f57620013fe565b60046000803e6200136260005162001330565b6308c379a08114620013755750620013fe565b60405160043d036004823e80513d602482011167ffffffffffffffff82111715620013a357505050620013fe565b808201805167ffffffffffffffff811115620013c4575050505050620013fe565b8060208301013d8501811115620013e157505050505050620013fe565b620013ec826200131f565b60208401016040528296505050505050505b90565b6200140c816200116e565b81146200141857600080fd5b50565b620014268162001182565b81146200143257600080fd5b50565b6130ed80620014456000396000f3fe608060405234801561001057600080fd5b50600436106101205760003560e01c8063715018a6116100ad578063d1495ee011610071578063d1495ee014610340578063e985e9c51461035e578063f242432a1461038e578063f2fde38b146103aa578063fb4f29c8146103c657610120565b8063715018a6146102c25780638da5cb5b146102cc5780639cb84a01146102ea578063a22cb46514610308578063ac50af5f1461032457610120565b80630e89341c116100f45780630e89341c146101e65780632eb2c2d6146102165780632f54bf6e1461023257806343859632146102625780634e1273f41461029257610120565b8062fdd58e14610125578063013cf08b1461015557806301ffc9a714610186578063025e7c27146101b6575b600080fd5b61013f600480360381019061013a9190611fff565b6103e2565b60405161014c9190612be4565b60405180910390f35b61016f600480360381019061016a9190612122565b6104ab565b60405161017d9291906129b9565b60405180910390f35b6101a0600480360381019061019b91906120d0565b6104df565b6040516101ad919061299e565b60405180910390f35b6101d060048036038101906101cb9190612122565b6105c1565b6040516101dd9190612868565b60405180910390f35b61020060048036038101906101fb9190612122565b610600565b60405161020d91906129e2565b60405180910390f35b610230600480360381019061022b9190611e75565b610694565b005b61024c60048036038101906102479190611e10565b610735565b604051610259919061299e565b60405180910390f35b61027c6004803603810190610277919061214b565b610755565b604051610289919061299e565b60405180910390f35b6102ac60048036038101906102a7919061203b565b610784565b6040516102b99190612945565b60405180910390f35b6102ca610935565b005b6102d46109bd565b6040516102e19190612868565b60405180910390f35b6102f26109e7565b6040516102ff9190612be4565b60405180910390f35b610322600480360381019061031d9190611fc3565b6109ec565b005b61033e600480360381019061033991906120a7565b610b6d565b005b610348610c5d565b6040516103559190612be4565b60405180910390f35b61037860048036038101906103739190611e39565b610c62565b604051610385919061299e565b60405180910390f35b6103a860048036038101906103a39190611f34565b610cf6565b005b6103c460048036038101906103bf9190611e10565b610d97565b005b6103e060048036038101906103db9190612122565b610e8f565b005b60008073ffffffffffffffffffffffffffffffffffffffff168373ffffffffffffffffffffffffffffffffffffffff161415610453576040517f08c379a000000000000000000000000000000000000000000000000000000000815260040161044a90612a44565b60405180910390fd5b60008083815260200190815260200160002060008473ffffffffffffffffffffffffffffffffffffffff1673ffffffffffffffffffffffffffffffffffffffff16815260200190815260200160002054905092915050565b600681815481106104bb57600080fd5b90600052602060002090600202016000915090508060000154908060010154905082565b60007fd9b67a26000000000000000000000000000000000000000000000000000000007bffffffffffffffffffffffffffffffffffffffffffffffffffffffff1916827bffffffffffffffffffffffffffffffffffffffffffffffffffffffff191614806105aa57507f0e89341c000000000000000000000000000000000000000000000000000000007bffffffffffffffffffffffffffffffffffffffffffffffffffffffff1916827bffffffffffffffffffffffffffffffffffffffffffffffffffffffff1916145b806105ba57506105b982611076565b5b9050919050565b600781815481106105d157600080fd5b906000526020600020016000915054906101000a900473ffffffffffffffffffffffffffffffffffffffff1681565b60606002805461060f90612e68565b80601f016020809104026020016040519081016040528092919081815260200182805461063b90612e68565b80156106885780601f1061065d57610100808354040283529160200191610688565b820191906000526020600020905b81548152906001019060200180831161066b57829003601f168201915b50505050509050919050565b61069c6110e0565b73ffffffffffffffffffffffffffffffffffffffff168573ffffffffffffffffffffffffffffffffffffffff1614806106e257506106e1856106dc6110e0565b610c62565b5b610721576040517f08c379a000000000000000000000000000000000000000000000000000000000815260040161071890612b04565b60405180910390fd5b61072e85858585856110e8565b5050505050565b60056020528060005260406000206000915054906101000a900460ff1681565b60046020528160005260406000206020528060005260406000206000915091509054906101000a900460ff1681565b606081518351146107ca576040517f08c379a00000000000000000000000000000000000000000000000000000000081526004016107c190612ba4565b60405180910390fd5b6000835167ffffffffffffffff81111561080d577f4e487b7100000000000000000000000000000000000000000000000000000000600052604160045260246000fd5b60405190808252806020026020018201604052801561083b5781602001602082028036833780820191505090505b50905060005b845181101561092a576108d4858281518110610886577f4e487b7100000000000000000000000000000000000000000000000000000000600052603260045260246000fd5b60200260200101518583815181106108c7577f4e487b7100000000000000000000000000000000000000000000000000000000600052603260045260246000fd5b60200260200101516103e2565b82828151811061090d577f4e487b7100000000000000000000000000000000000000000000000000000000600052603260045260246000fd5b6020026020010181815250508061092390612e9a565b9050610841565b508091505092915050565b61093d6110e0565b73ffffffffffffffffffffffffffffffffffffffff1661095b6109bd565b73ffffffffffffffffffffffffffffffffffffffff16146109b1576040517f08c379a00000000000000000000000000000000000000000000000000000000081526004016109a890612b64565b60405180910390fd5b6109bb6000611448565b565b6000600360009054906101000a900473ffffffffffffffffffffffffffffffffffffffff16905090565b600181565b8173ffffffffffffffffffffffffffffffffffffffff16610a0b6110e0565b73ffffffffffffffffffffffffffffffffffffffff161415610a62576040517f08c379a0000000000000000000000000000000000000000000000000000000008152600401610a5990612b84565b60405180910390fd5b8060016000610a6f6110e0565b73ffffffffffffffffffffffffffffffffffffffff1673ffffffffffffffffffffffffffffffffffffffff16815260200190815260200160002060008473ffffffffffffffffffffffffffffffffffffffff1673ffffffffffffffffffffffffffffffffffffffff16815260200190815260200160002060006101000a81548160ff0219169083151502179055508173ffffffffffffffffffffffffffffffffffffffff16610b1c6110e0565b73ffffffffffffffffffffffffffffffffffffffff167f17307eab39ab6107e8899845ad3d59bd9653f200f220920489ca2b5937696c3183604051610b61919061299e565b60405180910390a35050565b6001600560003373ffffffffffffffffffffffffffffffffffffffff1673ffffffffffffffffffffffffffffffffffffffff16815260200190815260200160002060006101000a81548160ff0219169083151502179055610c03576040517f08c379a0000000000000000000000000000000000000000000000000000000008152600401610bfa90612b24565b60405180910390fd5b60066040518060400160405280838152602001600081525090806001815401808255809150506001900390600052602060002090600202016000909190919091506000820151816000015560208201518160010155505050565b600081565b6000600160008473ffffffffffffffffffffffffffffffffffffffff1673ffffffffffffffffffffffffffffffffffffffff16815260200190815260200160002060008373ffffffffffffffffffffffffffffffffffffffff1673ffffffffffffffffffffffffffffffffffffffff16815260200190815260200160002060009054906101000a900460ff16905092915050565b610cfe6110e0565b73ffffffffffffffffffffffffffffffffffffffff168573ffffffffffffffffffffffffffffffffffffffff161480610d445750610d4385610d3e6110e0565b610c62565b5b610d83576040517f08c379a0000000000000000000000000000000000000000000000000000000008152600401610d7a90612a84565b60405180910390fd5b610d90858585858561150e565b5050505050565b610d9f6110e0565b73ffffffffffffffffffffffffffffffffffffffff16610dbd6109bd565b73ffffffffffffffffffffffffffffffffffffffff1614610e13576040517f08c379a0000000000000000000000000000000000000000000000000000000008152600401610e0a90612b64565b60405180910390fd5b600073ffffffffffffffffffffffffffffffffffffffff168173ffffffffffffffffffffffffffffffffffffffff161415610e83576040517f08c379a0000000000000000000000000000000000000000000000000000000008152600401610e7a90612a64565b60405180910390fd5b610e8c81611448565b50565b6000610e9c3360006103e2565b1180610eb257506000610eb03360016103e2565b115b610ef1576040517f08c379a0000000000000000000000000000000000000000000000000000000008152600401610ee890612ac4565b60405180910390fd5b600115156004600083815260200190815260200160002060003373ffffffffffffffffffffffffffffffffffffffff1673ffffffffffffffffffffffffffffffffffffffff16815260200190815260200160002060009054906101000a900460ff1615151415610f96576040517f08c379a0000000000000000000000000000000000000000000000000000000008152600401610f8d90612aa4565b60405180910390fd5b60068181548110610fd0577f4e487b7100000000000000000000000000000000000000000000000000000000600052603260045260246000fd5b90600052602060002090600202016001016000815480929190610ff290612e9a565b919050555060016004600083815260200190815260200160002060003373ffffffffffffffffffffffffffffffffffffffff1673ffffffffffffffffffffffffffffffffffffffff16815260200190815260200160002060006101000a81548160ff02191690831515021790555050565b600080823b905060008111915050919050565b60007f01ffc9a7000000000000000000000000000000000000000000000000000000007bffffffffffffffffffffffffffffffffffffffffffffffffffffffff1916827bffffffffffffffffffffffffffffffffffffffffffffffffffffffff1916149050919050565b600033905090565b815183511461112c576040517f08c379a000000000000000000000000000000000000000000000000000000000815260040161112390612bc4565b60405180910390fd5b600073ffffffffffffffffffffffffffffffffffffffff168473ffffffffffffffffffffffffffffffffffffffff16141561119c576040517f08c379a000000000000000000000000000000000000000000000000000000000815260040161119390612ae4565b60405180910390fd5b60006111a66110e0565b90506111b6818787878787611790565b60005b84518110156113b35760008582815181106111fd577f4e487b7100000000000000000000000000000000000000000000000000000000600052603260045260246000fd5b602002602001015190506000858381518110611242577f4e487b7100000000000000000000000000000000000000000000000000000000600052603260045260246000fd5b60200260200101519050600080600084815260200190815260200160002060008b73ffffffffffffffffffffffffffffffffffffffff1673ffffffffffffffffffffffffffffffffffffffff168152602001908152602001600020549050818110156112e3576040517f08c379a00000000000000000000000000000000000000000000000000000000081526004016112da90612b44565b60405180910390fd5b81810360008085815260200190815260200160002060008c73ffffffffffffffffffffffffffffffffffffffff1673ffffffffffffffffffffffffffffffffffffffff168152602001908152602001600020819055508160008085815260200190815260200160002060008b73ffffffffffffffffffffffffffffffffffffffff1673ffffffffffffffffffffffffffffffffffffffff16815260200190815260200160002060008282546113989190612d52565b92505081905550505050806113ac90612e9a565b90506111b9565b508473ffffffffffffffffffffffffffffffffffffffff168673ffffffffffffffffffffffffffffffffffffffff168273ffffffffffffffffffffffffffffffffffffffff167f4a39dc06d4c0dbc64b70af90fd698a233a518aa5d07e595d983b8c0526c8f7fb878760405161142a929190612967565b60405180910390a4611440818787878787611798565b505050505050565b6000600360009054906101000a900473ffffffffffffffffffffffffffffffffffffffff16905081600360006101000a81548173ffffffffffffffffffffffffffffffffffffffff021916908373ffffffffffffffffffffffffffffffffffffffff1602179055508173ffffffffffffffffffffffffffffffffffffffff168173ffffffffffffffffffffffffffffffffffffffff167f8be0079c531659141344cd1fd0a4f28419497f9722a3daafe3b4186f6b6457e060405160405180910390a35050565b600073ffffffffffffffffffffffffffffffffffffffff168473ffffffffffffffffffffffffffffffffffffffff16141561157e576040517f08c379a000000000000000000000000000000000000000000000000000000000815260040161157590612ae4565b60405180910390fd5b60006115886110e0565b90506115a881878761159988611968565b6115a288611968565b87611790565b600080600086815260200190815260200160002060008873ffffffffffffffffffffffffffffffffffffffff1673ffffffffffffffffffffffffffffffffffffffff1681526020019081526020016000205490508381101561163f576040517f08c379a000000000000000000000000000000000000000000000000000000000815260040161163690612b44565b60405180910390fd5b83810360008087815260200190815260200160002060008973ffffffffffffffffffffffffffffffffffffffff1673ffffffffffffffffffffffffffffffffffffffff168152602001908152602001600020819055508360008087815260200190815260200160002060008873ffffffffffffffffffffffffffffffffffffffff1673ffffffffffffffffffffffffffffffffffffffff16815260200190815260200160002060008282546116f49190612d52565b925050819055508573ffffffffffffffffffffffffffffffffffffffff168773ffffffffffffffffffffffffffffffffffffffff168373ffffffffffffffffffffffffffffffffffffffff167fc3d58168c5ae7397731d063d5bbf3d657854427343f4c083240f7aacaa2d0f628888604051611771929190612bff565b60405180910390a4611787828888888888611a2e565b50505050505050565b505050505050565b6117b78473ffffffffffffffffffffffffffffffffffffffff16611063565b15611960578373ffffffffffffffffffffffffffffffffffffffff1663bc197c8187878686866040518663ffffffff1660e01b81526004016117fd959493929190612883565b602060405180830381600087803b15801561181757600080fd5b505af192505050801561184857506040513d601f19601f8201168201806040525081019061184591906120f9565b60015b6118d757611854612f8e565b8061185f575061189c565b806040517f08c379a000000000000000000000000000000000000000000000000000000000815260040161189391906129e2565b60405180910390fd5b6040517f08c379a00000000000000000000000000000000000000000000000000000000081526004016118ce90612a04565b60405180910390fd5b63bc197c8160e01b7bffffffffffffffffffffffffffffffffffffffffffffffffffffffff1916817bffffffffffffffffffffffffffffffffffffffffffffffffffffffff19161461195e576040517f08c379a000000000000000000000000000000000000000000000000000000000815260040161195590612a24565b60405180910390fd5b505b505050505050565b60606000600167ffffffffffffffff8111156119ad577f4e487b7100000000000000000000000000000000000000000000000000000000600052604160045260246000fd5b6040519080825280602002602001820160405280156119db5781602001602082028036833780820191505090505b5090508281600081518110611a19577f4e487b7100000000000000000000000000000000000000000000000000000000600052603260045260246000fd5b60200260200101818152505080915050919050565b611a4d8473ffffffffffffffffffffffffffffffffffffffff16611063565b15611bf6578373ffffffffffffffffffffffffffffffffffffffff1663f23a6e6187878686866040518663ffffffff1660e01b8152600401611a939594939291906128eb565b602060405180830381600087803b158015611aad57600080fd5b505af1925050508015611ade57506040513d601f19601f82011682018060405250810190611adb91906120f9565b60015b611b6d57611aea612f8e565b80611af55750611b32565b806040517f08c379a0000000000000000000000000000000000000000000000000000000008152600401611b2991906129e2565b60405180910390fd5b6040517f08c379a0000000000000000000000000000000000000000000000000000000008152600401611b6490612a04565b60405180910390fd5b63f23a6e6160e01b7bffffffffffffffffffffffffffffffffffffffffffffffffffffffff1916817bffffffffffffffffffffffffffffffffffffffffffffffffffffffff191614611bf4576040517f08c379a0000000000000000000000000000000000000000000000000000000008152600401611beb90612a24565b60405180910390fd5b505b505050505050565b6000611c11611c0c84612c59565b612c28565b90508083825260208201905082856020860282011115611c3057600080fd5b60005b85811015611c605781611c468882611d14565b845260208401935060208301925050600181019050611c33565b5050509392505050565b6000611c7d611c7884612c85565b612c28565b90508083825260208201905082856020860282011115611c9c57600080fd5b60005b85811015611ccc5781611cb28882611dfb565b845260208401935060208301925050600181019050611c9f565b5050509392505050565b6000611ce9611ce484612cb1565b612c28565b905082815260208101848484011115611d0157600080fd5b611d0c848285612e26565b509392505050565b600081359050611d2381613044565b92915050565b600082601f830112611d3a57600080fd5b8135611d4a848260208601611bfe565b91505092915050565b600082601f830112611d6457600080fd5b8135611d74848260208601611c6a565b91505092915050565b600081359050611d8c8161305b565b92915050565b600081359050611da181613072565b92915050565b600081359050611db681613089565b92915050565b600081519050611dcb81613089565b92915050565b600082601f830112611de257600080fd5b8135611df2848260208601611cd6565b91505092915050565b600081359050611e0a816130a0565b92915050565b600060208284031215611e2257600080fd5b6000611e3084828501611d14565b91505092915050565b60008060408385031215611e4c57600080fd5b6000611e5a85828601611d14565b9250506020611e6b85828601611d14565b9150509250929050565b600080600080600060a08688031215611e8d57600080fd5b6000611e9b88828901611d14565b9550506020611eac88828901611d14565b945050604086013567ffffffffffffffff811115611ec957600080fd5b611ed588828901611d53565b935050606086013567ffffffffffffffff811115611ef257600080fd5b611efe88828901611d53565b925050608086013567ffffffffffffffff811115611f1b57600080fd5b611f2788828901611dd1565b9150509295509295909350565b600080600080600060a08688031215611f4c57600080fd5b6000611f5a88828901611d14565b9550506020611f6b88828901611d14565b9450506040611f7c88828901611dfb565b9350506060611f8d88828901611dfb565b925050608086013567ffffffffffffffff811115611faa57600080fd5b611fb688828901611dd1565b9150509295509295909350565b60008060408385031215611fd657600080fd5b6000611fe485828601611d14565b9250506020611ff585828601611d7d565b9150509250929050565b6000806040838503121561201257600080fd5b600061202085828601611d14565b925050602061203185828601611dfb565b9150509250929050565b6000806040838503121561204e57600080fd5b600083013567ffffffffffffffff81111561206857600080fd5b61207485828601611d29565b925050602083013567ffffffffffffffff81111561209157600080fd5b61209d85828601611d53565b9150509250929050565b6000602082840312156120b957600080fd5b60006120c784828501611d92565b91505092915050565b6000602082840312156120e257600080fd5b60006120f084828501611da7565b91505092915050565b60006020828403121561210b57600080fd5b600061211984828501611dbc565b91505092915050565b60006020828403121561213457600080fd5b600061214284828501611dfb565b91505092915050565b6000806040838503121561215e57600080fd5b600061216c85828601611dfb565b925050602061217d85828601611d14565b9150509250929050565b6000612193838361284a565b60208301905092915050565b6121a881612da8565b82525050565b60006121b982612cf1565b6121c38185612d1f565b93506121ce83612ce1565b8060005b838110156121ff5781516121e68882612187565b97506121f183612d12565b9250506001810190506121d2565b5085935050505092915050565b61221581612dba565b82525050565b61222481612dc6565b82525050565b600061223582612cfc565b61223f8185612d30565b935061224f818560208601612e35565b61225881612f70565b840191505092915050565b600061226e82612d07565b6122788185612d41565b9350612288818560208601612e35565b61229181612f70565b840191505092915050565b60006122a9603483612d41565b91507f455243313135353a207472616e7366657220746f206e6f6e204552433131353560008301527f526563656976657220696d706c656d656e7465720000000000000000000000006020830152604082019050919050565b600061230f602883612d41565b91507f455243313135353a204552433131353552656365697665722072656a6563746560008301527f6420746f6b656e730000000000000000000000000000000000000000000000006020830152604082019050919050565b6000612375602b83612d41565b91507f455243313135353a2062616c616e636520717565727920666f7220746865207a60008301527f65726f20616464726573730000000000000000000000000000000000000000006020830152604082019050919050565b60006123db602683612d41565b91507f4f776e61626c653a206e6577206f776e657220697320746865207a65726f206160008301527f64647265737300000000000000000000000000000000000000000000000000006020830152604082019050919050565b6000612441602983612d41565b91507f455243313135353a2063616c6c6572206973206e6f74206f776e6572206e6f7260008301527f20617070726f76656400000000000000000000000000000000000000000000006020830152604082019050919050565b60006124a7602283612d41565b91507f596f7520616c726561647920766f746564206f6e20746869732070726f706f7360008301527f616c0000000000000000000000000000000000000000000000000000000000006020830152604082019050919050565b600061250d601783612d41565b91507f596f75206e656564204e46547320666f7220746869732e0000000000000000006000830152602082019050919050565b600061254d602583612d41565b91507f455243313135353a207472616e7366657220746f20746865207a65726f20616460008301527f64726573730000000000000000000000000000000000000000000000000000006020830152604082019050919050565b60006125b3603283612d41565b91507f455243313135353a207472616e736665722063616c6c6572206973206e6f742060008301527f6f776e6572206e6f7220617070726f76656400000000000000000000000000006020830152604082019050919050565b6000612619602483612d41565b91507f596f75206e65656420746f2068617665206f776e65727368697020666f72207460008301527f6869732e000000000000000000000000000000000000000000000000000000006020830152604082019050919050565b600061267f602a83612d41565b91507f455243313135353a20696e73756666696369656e742062616c616e636520666f60008301527f72207472616e73666572000000000000000000000000000000000000000000006020830152604082019050919050565b60006126e5602083612d41565b91507f4f776e61626c653a2063616c6c6572206973206e6f7420746865206f776e65726000830152602082019050919050565b6000612725602983612d41565b91507f455243313135353a2073657474696e6720617070726f76616c2073746174757360008301527f20666f722073656c6600000000000000000000000000000000000000000000006020830152604082019050919050565b600061278b602983612d41565b91507f455243313135353a206163636f756e747320616e6420696473206c656e67746860008301527f206d69736d6174636800000000000000000000000000000000000000000000006020830152604082019050919050565b60006127f1602883612d41565b91507f455243313135353a2069647320616e6420616d6f756e7473206c656e6774682060008301527f6d69736d617463680000000000000000000000000000000000000000000000006020830152604082019050919050565b61285381612e1c565b82525050565b61286281612e1c565b82525050565b600060208201905061287d600083018461219f565b92915050565b600060a082019050612898600083018861219f565b6128a5602083018761219f565b81810360408301526128b781866121ae565b905081810360608301526128cb81856121ae565b905081810360808301526128df818461222a565b90509695505050505050565b600060a082019050612900600083018861219f565b61290d602083018761219f565b61291a6040830186612859565b6129276060830185612859565b8181036080830152612939818461222a565b90509695505050505050565b6000602082019050818103600083015261295f81846121ae565b905092915050565b6000604082019050818103600083015261298181856121ae565b9050818103602083015261299581846121ae565b90509392505050565b60006020820190506129b3600083018461220c565b92915050565b60006040820190506129ce600083018561221b565b6129db6020830184612859565b9392505050565b600060208201905081810360008301526129fc8184612263565b905092915050565b60006020820190508181036000830152612a1d8161229c565b9050919050565b60006020820190508181036000830152612a3d81612302565b9050919050565b60006020820190508181036000830152612a5d81612368565b9050919050565b60006020820190508181036000830152612a7d816123ce565b9050919050565b60006020820190508181036000830152612a9d81612434565b9050919050565b60006020820190508181036000830152612abd8161249a565b9050919050565b60006020820190508181036000830152612add81612500565b9050919050565b60006020820190508181036000830152612afd81612540565b9050919050565b60006020820190508181036000830152612b1d816125a6565b9050919050565b60006020820190508181036000830152612b3d8161260c565b9050919050565b60006020820190508181036000830152612b5d81612672565b9050919050565b60006020820190508181036000830152612b7d816126d8565b9050919050565b60006020820190508181036000830152612b9d81612718565b9050919050565b60006020820190508181036000830152612bbd8161277e565b9050919050565b60006020820190508181036000830152612bdd816127e4565b9050919050565b6000602082019050612bf96000830184612859565b92915050565b6000604082019050612c146000830185612859565b612c216020830184612859565b9392505050565b6000604051905081810181811067ffffffffffffffff82111715612c4f57612c4e612f41565b5b8060405250919050565b600067ffffffffffffffff821115612c7457612c73612f41565b5b602082029050602081019050919050565b600067ffffffffffffffff821115612ca057612c9f612f41565b5b602082029050602081019050919050565b600067ffffffffffffffff821115612ccc57612ccb612f41565b5b601f19601f8301169050602081019050919050565b6000819050602082019050919050565b600081519050919050565b600081519050919050565b600081519050919050565b6000602082019050919050565b600082825260208201905092915050565b600082825260208201905092915050565b600082825260208201905092915050565b6000612d5d82612e1c565b9150612d6883612e1c565b9250827fffffffffffffffffffffffffffffffffffffffffffffffffffffffffffffffff03821115612d9d57612d9c612ee3565b5b828201905092915050565b6000612db382612dfc565b9050919050565b60008115159050919050565b6000819050919050565b60007fffffffff0000000000000000000000000000000000000000000000000000000082169050919050565b600073ffffffffffffffffffffffffffffffffffffffff82169050919050565b6000819050919050565b82818337600083830152505050565b60005b83811015612e53578082015181840152602081019050612e38565b83811115612e62576000848401525b50505050565b60006002820490506001821680612e8057607f821691505b60208210811415612e9457612e93612f12565b5b50919050565b6000612ea582612e1c565b91507fffffffffffffffffffffffffffffffffffffffffffffffffffffffffffffffff821415612ed857612ed7612ee3565b5b600182019050919050565b7f4e487b7100000000000000000000000000000000000000000000000000000000600052601160045260246000fd5b7f4e487b7100000000000000000000000000000000000000000000000000000000600052602260045260246000fd5b7f4e487b7100000000000000000000000000000000000000000000000000000000600052604160045260246000fd5b6000601f19601f8301169050919050565b60008160e01c9050919050565b600060443d1015612f9e57613041565b60046000803e612faf600051612f81565b6308c379a08114612fc05750613041565b60405160043d036004823e80513d602482011167ffffffffffffffff82111715612fec57505050613041565b808201805167ffffffffffffffff81111561300b575050505050613041565b8060208301013d850181111561302657505050505050613041565b61302f82612f70565b60208401016040528296505050505050505b90565b61304d81612da8565b811461305857600080fd5b50565b61306481612dba565b811461306f57600080fd5b50565b61307b81612dc6565b811461308657600080fd5b50565b61309281612dd0565b811461309d57600080fd5b50565b6130a981612e1c565b81146130b457600080fd5b5056fea26469706673582212206b5a9cb8eb9c89b60db38f0128e89d668603b8ea1231c016196dfd9e0f4ab60564736f6c63430008000033",
  "linkReferences": {},
  "deployedLinkReferences": {}
}